{
  "_format": "hh3-artifact-1",
  "contractName": "DocumentVerification",
  "sourceName": "contracts/DocumentVerification.sol",
  "abi": [
    {
      "inputs": [
        {
          "internalType": "string",
          "name": "hash",
          "type": "string"
        }
      ],
      "name": "storeHash",
      "outputs": [],
      "stateMutability": "nonpayable",
      "type": "function"
    },
    {
      "inputs": [
        {
          "internalType": "string",
          "name": "hash",
          "type": "string"
        }
      ],
      "name": "verifyHash",
      "outputs": [
        {
          "internalType": "bool",
          "name": "",
          "type": "bool"
        }
      ],
      "stateMutability": "view",
      "type": "function"
    }
  ],
  "bytecode": "0x6080604052348015600e575f5ffd5b506103538061001c5f395ff3fe608060405234801561000f575f5ffd5b5060043610610034575f3560e01c806371dc61cb1461003857806386fb281314610054575b5f5ffd5b610052600480360381019061004d919061023b565b610084565b005b61006e6004803603810190610069919061023b565b6100bc565b60405161007b919061029c565b60405180910390f35b60015f826040516100959190610307565b90815260200160405180910390205f6101000a81548160ff02191690831515021790555050565b5f5f826040516100cc9190610307565b90815260200160405180910390205f9054906101000a900460ff169050919050565b5f604051905090565b5f5ffd5b5f5ffd5b5f5ffd5b5f5ffd5b5f601f19601f8301169050919050565b7f4e487b71000000000000000000000000000000000000000000000000000000005f52604160045260245ffd5b61014d82610107565b810181811067ffffffffffffffff8211171561016c5761016b610117565b5b80604052505050565b5f61017e6100ee565b905061018a8282610144565b919050565b5f67ffffffffffffffff8211156101a9576101a8610117565b5b6101b282610107565b9050602081019050919050565b828183375f83830152505050565b5f6101df6101da8461018f565b610175565b9050828152602081018484840111156101fb576101fa610103565b5b6102068482856101bf565b509392505050565b5f82601f830112610222576102216100ff565b5b81356102328482602086016101cd565b91505092915050565b5f602082840312156102505761024f6100f7565b5b5f82013567ffffffffffffffff81111561026d5761026c6100fb565b5b6102798482850161020e565b91505092915050565b5f8115159050919050565b61029681610282565b82525050565b5f6020820190506102af5f83018461028d565b92915050565b5f81519050919050565b5f81905092915050565b8281835e5f83830152505050565b5f6102e1826102b5565b6102eb81856102bf565b93506102fb8185602086016102c9565b80840191505092915050565b5f61031282846102d7565b91508190509291505056fea26469706673582212203ff30e10f2e0c4a89c450cfcaee04b41269e8ea8de0a4e6390e529a8a6110b0264736f6c634300081c0033",
  "linkReferences": {},
  "deployedLinkReferences": {},
  "immutableReferences": {},
  "inputSourceName": "project/contracts/DocumentVerification.sol",
  "buildInfoId": "solc-0_8_28-c9b748af48d30628ad7fcb2ef96356f13d1e8299"
}